{
  "contracts/yeild.sol": {
    "YieldFarm": {
      "abi": [
        {
          "inputs": [
            {
              "internalType": "address",
              "name": "_lpToken",
              "type": "address"
            },
            {
              "internalType": "address",
              "name": "_rewardToken",
              "type": "address"
            },
            {
              "internalType": "uint256",
              "name": "_rewardRate",
              "type": "uint256"
            }
          ],
          "stateMutability": "nonpayable",
          "type": "constructor"
        },
        {
          "inputs": [
            {
              "internalType": "uint256",
              "name": "currentBalance",
              "type": "uint256"
            },
            {
              "internalType": "uint256",
              "name": "expectedBalance",
              "type": "uint256"
            }
          ],
          "name": "InsufficientBalance",
          "type": "error"
        },
        {
          "inputs": [
            {
              "internalType": "address",
              "name": "owner",
              "type": "address"
            }
          ],
          "name": "OwnableInvalidOwner",
          "type": "error"
        },
        {
          "inputs": [
            {
              "internalType": "address",
              "name": "account",
              "type": "address"
            }
          ],
          "name": "OwnableUnauthorizedAccount",
          "type": "error"
        },
        {
          "inputs": [],
          "name": "ReentrancyGuardReentrantCall",
          "type": "error"
        },
        {
          "inputs": [],
          "name": "TransferFailed",
          "type": "error"
        },
        {
          "inputs": [],
          "name": "ZeroAddress",
          "type": "error"
        },
        {
          "inputs": [],
          "name": "ZeroValue",
          "type": "error"
        },
        {
          "anonymous": false,
          "inputs": [
            {
              "indexed": true,
              "internalType": "address",
              "name": "user",
              "type": "address"
            },
            {
              "indexed": false,
              "internalType": "uint256",
              "name": "amount",
              "type": "uint256"
            }
          ],
          "name": "EmergencyWithdrawn",
          "type": "event"
        },
        {
          "anonymous": false,
          "inputs": [
            {
              "indexed": true,
              "internalType": "address",
              "name": "previousOwner",
              "type": "address"
            },
            {
              "indexed": true,
              "internalType": "address",
              "name": "newOwner",
              "type": "address"
            }
          ],
          "name": "OwnershipTransferred",
          "type": "event"
        },
        {
          "anonymous": false,
          "inputs": [
            {
              "indexed": true,
              "internalType": "address",
              "name": "user",
              "type": "address"
            },
            {
              "indexed": false,
              "internalType": "uint256",
              "name": "amount",
              "type": "uint256"
            }
          ],
          "name": "RewardsClaimed",
          "type": "event"
        },
        {
          "anonymous": false,
          "inputs": [
            {
              "indexed": true,
              "internalType": "address",
              "name": "user",
              "type": "address"
            },
            {
              "indexed": false,
              "internalType": "uint256",
              "name": "amount",
              "type": "uint256"
            }
          ],
          "name": "Staked",
          "type": "event"
        },
        {
          "anonymous": false,
          "inputs": [
            {
              "indexed": true,
              "internalType": "address",
              "name": "user",
              "type": "address"
            },
            {
              "indexed": false,
              "internalType": "uint256",
              "name": "amount",
              "type": "uint256"
            }
          ],
          "name": "Withdrawn",
          "type": "event"
        },
        {
          "inputs": [],
          "name": "BOOST_THRESHOLD_1",
          "outputs": [
            {
              "internalType": "uint256",
              "name": "",
              "type": "uint256"
            }
          ],
          "stateMutability": "view",
          "type": "function"
        },
        {
          "inputs": [],
          "name": "BOOST_THRESHOLD_2",
          "outputs": [
            {
              "internalType": "uint256",
              "name": "",
              "type": "uint256"
            }
          ],
          "stateMutability": "view",
          "type": "function"
        },
        {
          "inputs": [],
          "name": "BOOST_THRESHOLD_3",
          "outputs": [
            {
              "internalType": "uint256",
              "name": "",
              "type": "uint256"
            }
          ],
          "stateMutability": "view",
          "type": "function"
        },
        {
          "inputs": [
            {
              "internalType": "address",
              "name": "_user",
              "type": "address"
            }
          ],
          "name": "calculateBoostMultiplier",
          "outputs": [
            {
              "internalType": "uint256",
              "name": "",
              "type": "uint256"
            }
          ],
          "stateMutability": "view",
          "type": "function"
        },
        {
          "inputs": [],
          "name": "claimRewards",
          "outputs": [],
          "stateMutability": "nonpayable",
          "type": "function"
        },
        {
          "inputs": [
            {
              "internalType": "address",
              "name": "_user",
              "type": "address"
            }
          ],
          "name": "earned",
          "outputs": [
            {
              "internalType": "uint256",
              "name": "",
              "type": "uint256"
            }
          ],
          "stateMutability": "view",
          "type": "function"
        },
        {
          "inputs": [],
          "name": "emergencyWithdraw",
          "outputs": [],
          "stateMutability": "nonpayable",
          "type": "function"
        },
        {
          "inputs": [],
          "name": "lastUpdateTime",
          "outputs": [
            {
              "internalType": "uint256",
              "name": "",
              "type": "uint256"
            }
          ],
          "stateMutability": "view",
          "type": "function"
        },
        {
          "inputs": [],
          "name": "lpToken",
          "outputs": [
            {
              "internalType": "contract IERC20",
              "name": "",
              "type": "address"
            }
          ],
          "stateMutability": "view",
          "type": "function"
        },
        {
          "inputs": [],
          "name": "owner",
          "outputs": [
            {
              "internalType": "address",
              "name": "",
              "type": "address"
            }
          ],
          "stateMutability": "view",
          "type": "function"
        },
        {
          "inputs": [
            {
              "internalType": "address",
              "name": "_user",
              "type": "address"
            }
          ],
          "name": "pendingRewards",
          "outputs": [
            {
              "internalType": "uint256",
              "name": "",
              "type": "uint256"
            }
          ],
          "stateMutability": "view",
          "type": "function"
        },
        {
          "inputs": [],
          "name": "renounceOwnership",
          "outputs": [],
          "stateMutability": "nonpayable",
          "type": "function"
        },
        {
          "inputs": [],
          "name": "rewardPerToken",
          "outputs": [
            {
              "internalType": "uint256",
              "name": "",
              "type": "uint256"
            }
          ],
          "stateMutability": "view",
          "type": "function"
        },
        {
          "inputs": [],
          "name": "rewardPerTokenStored",
          "outputs": [
            {
              "internalType": "uint256",
              "name": "",
              "type": "uint256"
            }
          ],
          "stateMutability": "view",
          "type": "function"
        },
        {
          "inputs": [],
          "name": "rewardRate",
          "outputs": [
            {
              "internalType": "uint256",
              "name": "",
              "type": "uint256"
            }
          ],
          "stateMutability": "view",
          "type": "function"
        },
        {
          "inputs": [],
          "name": "rewardToken",
          "outputs": [
            {
              "internalType": "contract IERC20",
              "name": "",
              "type": "address"
            }
          ],
          "stateMutability": "view",
          "type": "function"
        },
        {
          "inputs": [
            {
              "internalType": "uint256",
              "name": "_amount",
              "type": "uint256"
            }
          ],
          "name": "stake",
          "outputs": [],
          "stateMutability": "nonpayable",
          "type": "function"
        },
        {
          "inputs": [],
          "name": "totalStaked",
          "outputs": [
            {
              "internalType": "uint256",
              "name": "",
              "type": "uint256"
            }
          ],
          "stateMutability": "view",
          "type": "function"
        },
        {
          "inputs": [
            {
              "internalType": "address",
              "name": "newOwner",
              "type": "address"
            }
          ],
          "name": "transferOwnership",
          "outputs": [],
          "stateMutability": "nonpayable",
          "type": "function"
        },
        {
          "inputs": [
            {
              "internalType": "uint256",
              "name": "_newRate",
              "type": "uint256"
            }
          ],
          "name": "updateRewardRate",
          "outputs": [],
          "stateMutability": "nonpayable",
          "type": "function"
        },
        {
          "inputs": [
            {
              "internalType": "address",
              "name": "",
              "type": "address"
            }
          ],
          "name": "userInfo",
          "outputs": [
            {
              "internalType": "uint256",
              "name": "amount",
              "type": "uint256"
            },
            {
              "internalType": "uint256",
              "name": "startTime",
              "type": "uint256"
            },
            {
              "internalType": "uint256",
              "name": "rewardDebt",
              "type": "uint256"
            },
            {
              "internalType": "uint256",
              "name": "pendingRewards",
              "type": "uint256"
            }
          ],
          "stateMutability": "view",
          "type": "function"
        },
        {
          "inputs": [
            {
              "internalType": "uint256",
              "name": "_amount",
              "type": "uint256"
            }
          ],
          "name": "withdraw",
          "outputs": [],
          "stateMutability": "nonpayable",
          "type": "function"
        }
      ],
      "evm": {
        "bytecode": {
          "linkReferences": {},
          "object": "608060405234801561001057600080fd5b50604051610e82380380610e8283398101604081905261002f9161017d565b6001600055338061005a57604051631e4fbdf760e01b81526000600482015260240160405180910390fd5b6100638161010f565b506001600160a01b03821661008b5760405163d92e233d60e01b815260040160405180910390fd5b6001600160a01b0383166100b25760405163d92e233d60e01b815260040160405180910390fd5b806000036100d357604051637c946ed760e01b815260040160405180910390fd5b600280546001600160a01b039485166001600160a01b0319918216179091556003805493909416921691909117909155600455426005556101b9565b600180546001600160a01b038381166001600160a01b0319831681179093556040519116919082907f8be0079c531659141344cd1fd0a4f28419497f9722a3daafe3b4186f6b6457e090600090a35050565b80516001600160a01b038116811461017857600080fd5b919050565b60008060006060848603121561019257600080fd5b61019b84610161565b92506101a960208501610161565b9150604084015190509250925092565b610cba806101c86000396000f3fe608060405234801561001057600080fd5b50600436106101115760003560e01c80628cc26214610116578063109d74281461013c5780631959a002146101465780631c977df91461019b5780632e1a7d4d146101a557806331d7a262146101ba578063372500ab146101cd5780635fcbd285146101d5578063715018a6146101f55780637b0a47ee146101fd578063817b1cd214610206578063843dd78d1461020f5780638da5cb5b146102195780639ef3a26114610221578063a694fc3a14610234578063c8f33c9114610247578063ca9f3dfd14610250578063cd3daf9d14610263578063db2e21bc1461026b578063df136d6514610273578063f2fde38b1461027c578063f7c618c11461028f575b600080fd5b610129610124366004610b77565b6102a2565b6040519081526020015b60405180910390f35b61012962093a8081565b61017b610154366004610b77565b60086020526000908152604090208054600182015460028301546003909301549192909184565b604080519485526020850193909352918301526060820152608001610133565b61012962278d0081565b6101b86101b3366004610ba7565b610380565b005b6101296101c8366004610b77565b610500565b6101b8610511565b6002546101e8906001600160a01b031681565b6040516101339190610bc0565b6101b8610644565b61012960045481565b61012960075481565b6101296276a70081565b6101e8610656565b6101b861022f366004610ba7565b610665565b6101b8610242366004610ba7565b61069d565b61012960055481565b61012961025e366004610b77565b6107ed565b610129610870565b6101b86108db565b61012960065481565b6101b861028a366004610b77565b610a1f565b6003546101e8906001600160a01b031681565b6001600160a01b0381166000908152600860209081526040808320815160808101835281548152600182015493810193909352600281015491830191909152600301546060820152816102f3610870565b90508160400151811161030b57506060015192915050565b6000670de0b6b3a76400008360400151836103269190610bea565b84516103329190610bfd565b61033c9190610c14565b90506000610349866107ed565b9050600060646103598385610bfd565b6103639190610c14565b90508085606001516103759190610c36565b979650505050505050565b610388610a5a565b806000036103a957604051637c946ed760e01b815260040160405180910390fd5b33600090815260086020526040902080548211156103ec57805460405163cf47918160e01b81526004810191909152602481018390526044015b60405180910390fd5b6103f533610a84565b81600760008282546104079190610bea565b9091555050805482908290600090610420908490610bea565b909155505060025460405163a9059cbb60e01b81526001600160a01b039091169063a9059cbb906104579033908690600401610c49565b6020604051808303816000875af1158015610476573d6000803e3d6000fd5b505050506040513d601f19601f8201168201806040525081019061049a9190610c62565b15156000036104bc576040516312171d8360e31b815260040160405180910390fd5b60405182815233907f7084f5476618d8e60b11ef0d7d3f06914655adb8793e28ff7f018d4c76d505d5906020015b60405180910390a2506104fd6001600055565b50565b600061050b826102a2565b92915050565b610519610a5a565b61052233610a84565b3360008181526008602052604081209161053b906102a2565b9050801561061d5760006003808401919091555460405163a9059cbb60e01b81526001600160a01b039091169063a9059cbb9061057e9033908590600401610c49565b6020604051808303816000875af115801561059d573d6000803e3d6000fd5b505050506040513d601f19601f820116820180604052508101906105c19190610c62565b15156000036105e3576040516312171d8360e31b815260040160405180910390fd5b60405181815233907ffc30cddea38e2bf4d6ea7d3f9ed3b6ad7f176419f4963bd81318067a4aee73fe9060200160405180910390a2610636565b604051637c946ed760e01b815260040160405180910390fd5b50506106426001600055565b565b61064c610af3565b6106426000610b25565b6001546001600160a01b031690565b61066d610af3565b8060000361068e57604051637c946ed760e01b815260040160405180910390fd5b6106986000610a84565b600455565b6106a5610a5a565b806000036106c657604051637c946ed760e01b815260040160405180910390fd5b6106cf33610a84565b33600090815260086020526040812080549091036106ee574260018201555b81600760008282546107009190610c36565b9091555050805482908290600090610719908490610c36565b90915550506002546040516323b872dd60e01b8152336004820152306024820152604481018490526001600160a01b03909116906323b872dd906064016020604051808303816000875af1158015610775573d6000803e3d6000fd5b505050506040513d601f19601f820116820180604052508101906107999190610c62565b15156000036107bb576040516312171d8360e31b815260040160405180910390fd5b60405182815233907f9e71bc8eea02a63969f509818f2dafb9254532904319f9dbda79b67bd34a5f3d906020016104ea565b6001600160a01b0381166000908152600860205260408120805482036108165750606492915050565b60008160010154426108289190610bea565b90506276a700811061083e575060c89392505050565b62278d008110610852575060969392505050565b62093a8081106108665750607d9392505050565b5060649392505050565b6000600754600003610883575060065490565b6000600554426108939190610bea565b90506000600454826108a59190610bfd565b6007549091506108bd82670de0b6b3a7640000610bfd565b6108c79190610c14565b6006546108d49190610c36565b9250505090565b6108e3610a5a565b3360009081526008602052604081208054909181900361091657604051637c946ed760e01b815260040160405180910390fd5b80600760008282546109289190610bea565b9091555050600080835560018301819055600280840182905560038401919091555460405163a9059cbb60e01b81526001600160a01b039091169063a9059cbb906109799033908590600401610c49565b6020604051808303816000875af1158015610998573d6000803e3d6000fd5b505050506040513d601f19601f820116820180604052508101906109bc9190610c62565b15156000036109de576040516312171d8360e31b815260040160405180910390fd5b60405181815233907f2e39961a70a10f4d46383948095ac2752b3ee642a7c76aa827410aaff08c2e519060200160405180910390a250506106426001600055565b610a27610af3565b6001600160a01b038116610a51576000604051631e4fbdf760e01b81526004016103e39190610bc0565b6104fd81610b25565b600260005403610a7d57604051633ee5aeb560e01b815260040160405180910390fd5b6002600055565b610a8c610870565b600655426005556001600160a01b038116156104fd576001600160a01b0381166000908152600860205260409020610ac3826102a2565b60038201556006548154670de0b6b3a764000091610ae091610bfd565b610aea9190610c14565b60029091015550565b33610afc610656565b6001600160a01b031614610642573360405163118cdaa760e01b81526004016103e39190610bc0565b600180546001600160a01b038381166001600160a01b0319831681179093556040519116919082907f8be0079c531659141344cd1fd0a4f28419497f9722a3daafe3b4186f6b6457e090600090a35050565b600060208284031215610b8957600080fd5b81356001600160a01b0381168114610ba057600080fd5b9392505050565b600060208284031215610bb957600080fd5b5035919050565b6001600160a01b0391909116815260200190565b634e487b7160e01b600052601160045260246000fd5b8181038181111561050b5761050b610bd4565b808202811582820484141761050b5761050b610bd4565b600082610c3157634e487b7160e01b600052601260045260246000fd5b500490565b8082018082111561050b5761050b610bd4565b6001600160a01b03929092168252602082015260400190565b600060208284031215610c7457600080fd5b81518015158114610ba057600080fdfea2646970667358221220b2daff19743ac23b888eabeb716e785597f9ea7c12ddd4c63cd01ac4bafd48a864736f6c63430008140033",
          "opcodes": "PUSH1 0x80 PUSH1 0x40 MSTORE CALLVALUE DUP1 ISZERO PUSH2 0x10 JUMPI PUSH1 0x0 DUP1 REVERT JUMPDEST POP PUSH1 0x40 MLOAD PUSH2 0xE82 CODESIZE SUB DUP1 PUSH2 0xE82 DUP4 CODECOPY DUP2 ADD PUSH1 0x40 DUP2 SWAP1 MSTORE PUSH2 0x2F SWAP2 PUSH2 0x17D JUMP JUMPDEST PUSH1 0x1 PUSH1 0x0 SSTORE CALLER DUP1 PUSH2 0x5A JUMPI PUSH1 0x40 MLOAD PUSH4 0x1E4FBDF7 PUSH1 0xE0 SHL DUP2 MSTORE PUSH1 0x0 PUSH1 0x4 DUP3 ADD MSTORE PUSH1 0x24 ADD PUSH1 0x40 MLOAD DUP1 SWAP2 SUB SWAP1 REVERT JUMPDEST PUSH2 0x63 DUP2 PUSH2 0x10F JUMP JUMPDEST POP PUSH1 0x1 PUSH1 0x1 PUSH1 0xA0 SHL SUB DUP3 AND PUSH2 0x8B JUMPI PUSH1 0x40 MLOAD PUSH4 0xD92E233D PUSH1 0xE0 SHL DUP2 MSTORE PUSH1 0x4 ADD PUSH1 0x40 MLOAD DUP1 SWAP2 SUB SWAP1 REVERT JUMPDEST PUSH1 0x1 PUSH1 0x1 PUSH1 0xA0 SHL SUB DUP4 AND PUSH2 0xB2 JUMPI PUSH1 0x40 MLOAD PUSH4 0xD92E233D PUSH1 0xE0 SHL DUP2 MSTORE PUSH1 0x4 ADD PUSH1 0x40 MLOAD DUP1 SWAP2 SUB SWAP1 REVERT JUMPDEST DUP1 PUSH1 0x0 SUB PUSH2 0xD3 JUMPI PUSH1 0x40 MLOAD PUSH4 0x7C946ED7 PUSH1 0xE0 SHL DUP2 MSTORE PUSH1 0x4 ADD PUSH1 0x40 MLOAD DUP1 SWAP2 SUB SWAP1 REVERT JUMPDEST PUSH1 0x2 DUP1 SLOAD PUSH1 0x1 PUSH1 0x1 PUSH1 0xA0 SHL SUB SWAP5 DUP6 AND PUSH1 0x1 PUSH1 0x1 PUSH1 0xA0 SHL SUB NOT SWAP2 DUP3 AND OR SWAP1 SWAP2 SSTORE PUSH1 0x3 DUP1 SLOAD SWAP4 SWAP1 SWAP5 AND SWAP3 AND SWAP2 SWAP1 SWAP2 OR SWAP1 SWAP2 SSTORE PUSH1 0x4 SSTORE TIMESTAMP PUSH1 0x5 SSTORE PUSH2 0x1B9 JUMP JUMPDEST PUSH1 0x1 DUP1 SLOAD PUSH1 0x1 PUSH1 0x1 PUSH1 0xA0 SHL SUB DUP4 DUP2 AND PUSH1 0x1 PUSH1 0x1 PUSH1 0xA0 SHL SUB NOT DUP4 AND DUP2 OR SWAP1 SWAP4 SSTORE PUSH1 0x40 MLOAD SWAP2 AND SWAP2 SWAP1 DUP3 SWAP1 PUSH32 0x8BE0079C531659141344CD1FD0A4F28419497F9722A3DAAFE3B4186F6B6457E0 SWAP1 PUSH1 0x0 SWAP1 LOG3 POP POP JUMP JUMPDEST DUP1 MLOAD PUSH1 0x1 PUSH1 0x1 PUSH1 0xA0 SHL SUB DUP2 AND DUP2 EQ PUSH2 0x178 JUMPI PUSH1 0x0 DUP1 REVERT JUMPDEST SWAP2 SWAP1 POP JUMP JUMPDEST PUSH1 0x0 DUP1 PUSH1 0x0 PUSH1 0x60 DUP5 DUP7 SUB SLT ISZERO PUSH2 0x192 JUMPI PUSH1 0x0 DUP1 REVERT JUMPDEST PUSH2 0x19B DUP5 PUSH2 0x161 JUMP JUMPDEST SWAP3 POP PUSH2 0x1A9 PUSH1 0x20 DUP6 ADD PUSH2 0x161 JUMP JUMPDEST SWAP2 POP PUSH1 0x40 DUP5 ADD MLOAD SWAP1 POP SWAP3 POP SWAP3 POP SWAP3 JUMP JUMPDEST PUSH2 0xCBA DUP1 PUSH2 0x1C8 PUSH1 0x0 CODECOPY PUSH1 0x0 RETURN INVALID PUSH1 0x80 PUSH1 0x40 MSTORE CALLVALUE DUP1 ISZERO PUSH2 0x10 JUMPI PUSH1 0x0 DUP1 REVERT JUMPDEST POP PUSH1 0x4 CALLDATASIZE LT PUSH2 0x111 JUMPI PUSH1 0x0 CALLDATALOAD PUSH1 0xE0 SHR DUP1 PUSH3 0x8CC262 EQ PUSH2 0x116 JUMPI DUP1 PUSH4 0x109D7428 EQ PUSH2 0x13C JUMPI DUP1 PUSH4 0x1959A002 EQ PUSH2 0x146 JUMPI DUP1 PUSH4 0x1C977DF9 EQ PUSH2 0x19B JUMPI DUP1 PUSH4 0x2E1A7D4D EQ PUSH2 0x1A5 JUMPI DUP1 PUSH4 0x31D7A262 EQ PUSH2 0x1BA JUMPI DUP1 PUSH4 0x372500AB EQ PUSH2 0x1CD JUMPI DUP1 PUSH4 0x5FCBD285 EQ PUSH2 0x1D5 JUMPI DUP1 PUSH4 0x715018A6 EQ PUSH2 0x1F5 JUMPI DUP1 PUSH4 0x7B0A47EE EQ PUSH2 0x1FD JUMPI DUP1 PUSH4 0x817B1CD2 EQ PUSH2 0x206 JUMPI DUP1 PUSH4 0x843DD78D EQ PUSH2 0x20F JUMPI DUP1 PUSH4 0x8DA5CB5B EQ PUSH2 0x219 JUMPI DUP1 PUSH4 0x9EF3A261 EQ PUSH2 0x221 JUMPI DUP1 PUSH4 0xA694FC3A EQ PUSH2 0x234 JUMPI DUP1 PUSH4 0xC8F33C91 EQ PUSH2 0x247 JUMPI DUP1 PUSH4 0xCA9F3DFD EQ PUSH2 0x250 JUMPI DUP1 PUSH4 0xCD3DAF9D EQ PUSH2 0x263 JUMPI DUP1 PUSH4 0xDB2E21BC EQ PUSH2 0x26B JUMPI DUP1 PUSH4 0xDF136D65 EQ PUSH2 0x273 JUMPI DUP1 PUSH4 0xF2FDE38B EQ PUSH2 0x27C JUMPI DUP1 PUSH4 0xF7C618C1 EQ PUSH2 0x28F JUMPI JUMPDEST PUSH1 0x0 DUP1 REVERT JUMPDEST PUSH2 0x129 PUSH2 0x124 CALLDATASIZE PUSH1 0x4 PUSH2 0xB77 JUMP JUMPDEST PUSH2 0x2A2 JUMP JUMPDEST PUSH1 0x40 MLOAD SWAP1 DUP2 MSTORE PUSH1 0x20 ADD JUMPDEST PUSH1 0x40 MLOAD DUP1 SWAP2 SUB SWAP1 RETURN JUMPDEST PUSH2 0x129 PUSH3 0x93A80 DUP2 JUMP JUMPDEST PUSH2 0x17B PUSH2 0x154 CALLDATASIZE PUSH1 0x4 PUSH2 0xB77 JUMP JUMPDEST PUSH1 0x8 PUSH1 0x20 MSTORE PUSH1 0x0 SWAP1 DUP2 MSTORE PUSH1 0x40 SWAP1 KECCAK256 DUP1 SLOAD PUSH1 0x1 DUP3 ADD SLOAD PUSH1 0x2 DUP4 ADD SLOAD PUSH1 0x3 SWAP1 SWAP4 ADD SLOAD SWAP2 SWAP3 SWAP1 SWAP2 DUP5 JUMP JUMPDEST PUSH1 0x40 DUP1 MLOAD SWAP5 DUP6 MSTORE PUSH1 0x20 DUP6 ADD SWAP4 SWAP1 SWAP4 MSTORE SWAP2 DUP4 ADD MSTORE PUSH1 0x60 DUP3 ADD MSTORE PUSH1 0x80 ADD PUSH2 0x133 JUMP JUMPDEST PUSH2 0x129 PUSH3 0x278D00 DUP2 JUMP JUMPDEST PUSH2 0x1B8 PUSH2 0x1B3 CALLDATASIZE PUSH1 0x4 PUSH2 0xBA7 JUMP JUMPDEST PUSH2 0x380 JUMP JUMPDEST STOP JUMPDEST PUSH2 0x129 PUSH2 0x1C8 CALLDATASIZE PUSH1 0x4 PUSH2 0xB77 JUMP JUMPDEST PUSH2 0x500 JUMP JUMPDEST PUSH2 0x1B8 PUSH2 0x511 JUMP JUMPDEST PUSH1 0x2 SLOAD PUSH2 0x1E8 SWAP1 PUSH1 0x1 PUSH1 0x1 PUSH1 0xA0 SHL SUB AND DUP2 JUMP JUMPDEST PUSH1 0x40 MLOAD PUSH2 0x133 SWAP2 SWAP1 PUSH2 0xBC0 JUMP JUMPDEST PUSH2 0x1B8 PUSH2 0x644 JUMP JUMPDEST PUSH2 0x129 PUSH1 0x4 SLOAD DUP2 JUMP JUMPDEST PUSH2 0x129 PUSH1 0x7 SLOAD DUP2 JUMP JUMPDEST PUSH2 0x129 PUSH3 0x76A700 DUP2 JUMP JUMPDEST PUSH2 0x1E8 PUSH2 0x656 JUMP JUMPDEST PUSH2 0x1B8 PUSH2 0x22F CALLDATASIZE PUSH1 0x4 PUSH2 0xBA7 JUMP JUMPDEST PUSH2 0x665 JUMP JUMPDEST PUSH2 0x1B8 PUSH2 0x242 CALLDATASIZE PUSH1 0x4 PUSH2 0xBA7 JUMP JUMPDEST PUSH2 0x69D JUMP JUMPDEST PUSH2 0x129 PUSH1 0x5 SLOAD DUP2 JUMP JUMPDEST PUSH2 0x129 PUSH2 0x25E CALLDATASIZE PUSH1 0x4 PUSH2 0xB77 JUMP JUMPDEST PUSH2 0x7ED JUMP JUMPDEST PUSH2 0x129 PUSH2 0x870 JUMP JUMPDEST PUSH2 0x1B8 PUSH2 0x8DB JUMP JUMPDEST PUSH2 0x129 PUSH1 0x6 SLOAD DUP2 JUMP JUMPDEST PUSH2 0x1B8 PUSH2 0x28A CALLDATASIZE PUSH1 0x4 PUSH2 0xB77 JUMP JUMPDEST PUSH2 0xA1F JUMP JUMPDEST PUSH1 0x3 SLOAD PUSH2 0x1E8 SWAP1 PUSH1 0x1 PUSH1 0x1 PUSH1 0xA0 SHL SUB AND DUP2 JUMP JUMPDEST PUSH1 0x1 PUSH1 0x1 PUSH1 0xA0 SHL SUB DUP2 AND PUSH1 0x0 SWAP1 DUP2 MSTORE PUSH1 0x8 PUSH1 0x20 SWAP1 DUP2 MSTORE PUSH1 0x40 DUP1 DUP4 KECCAK256 DUP2 MLOAD PUSH1 0x80 DUP2 ADD DUP4 MSTORE DUP2 SLOAD DUP2 MSTORE PUSH1 0x1 DUP3 ADD SLOAD SWAP4 DUP2 ADD SWAP4 SWAP1 SWAP4 MSTORE PUSH1 0x2 DUP2 ADD SLOAD SWAP2 DUP4 ADD SWAP2 SWAP1 SWAP2 MSTORE PUSH1 0x3 ADD SLOAD PUSH1 0x60 DUP3 ADD MSTORE DUP2 PUSH2 0x2F3 PUSH2 0x870 JUMP JUMPDEST SWAP1 POP DUP2 PUSH1 0x40 ADD MLOAD DUP2 GT PUSH2 0x30B JUMPI POP PUSH1 0x60 ADD MLOAD SWAP3 SWAP2 POP POP JUMP JUMPDEST PUSH1 0x0 PUSH8 0xDE0B6B3A7640000 DUP4 PUSH1 0x40 ADD MLOAD DUP4 PUSH2 0x326 SWAP2 SWAP1 PUSH2 0xBEA JUMP JUMPDEST DUP5 MLOAD PUSH2 0x332 SWAP2 SWAP1 PUSH2 0xBFD JUMP JUMPDEST PUSH2 0x33C SWAP2 SWAP1 PUSH2 0xC14 JUMP JUMPDEST SWAP1 POP PUSH1 0x0 PUSH2 0x349 DUP7 PUSH2 0x7ED JUMP JUMPDEST SWAP1 POP PUSH1 0x0 PUSH1 0x64 PUSH2 0x359 DUP4 DUP6 PUSH2 0xBFD JUMP JUMPDEST PUSH2 0x363 SWAP2 SWAP1 PUSH2 0xC14 JUMP JUMPDEST SWAP1 POP DUP1 DUP6 PUSH1 0x60 ADD MLOAD PUSH2 0x375 SWAP2 SWAP1 PUSH2 0xC36 JUMP JUMPDEST SWAP8 SWAP7 POP POP POP POP POP POP POP JUMP JUMPDEST PUSH2 0x388 PUSH2 0xA5A JUMP JUMPDEST DUP1 PUSH1 0x0 SUB PUSH2 0x3A9 JUMPI PUSH1 0x40 MLOAD PUSH4 0x7C946ED7 PUSH1 0xE0 SHL DUP2 MSTORE PUSH1 0x4 ADD PUSH1 0x40 MLOAD DUP1 SWAP2 SUB SWAP1 REVERT JUMPDEST CALLER PUSH1 0x0 SWAP1 DUP2 MSTORE PUSH1 0x8 PUSH1 0x20 MSTORE PUSH1 0x40 SWAP1 KECCAK256 DUP1 SLOAD DUP3 GT ISZERO PUSH2 0x3EC JUMPI DUP1 SLOAD PUSH1 0x40 MLOAD PUSH4 0xCF479181 PUSH1 0xE0 SHL DUP2 MSTORE PUSH1 0x4 DUP2 ADD SWAP2 SWAP1 SWAP2 MSTORE PUSH1 0x24 DUP2 ADD DUP4 SWAP1 MSTORE PUSH1 0x44 ADD JUMPDEST PUSH1 0x40 MLOAD DUP1 SWAP2 SUB SWAP1 REVERT JUMPDEST PUSH2 0x3F5 CALLER PUSH2 0xA84 JUMP JUMPDEST DUP2 PUSH1 0x7 PUSH1 0x0 DUP3 DUP3 SLOAD PUSH2 0x407 SWAP2 SWAP1 PUSH2 0xBEA JUMP JUMPDEST SWAP1 SWAP2 SSTORE POP POP DUP1 SLOAD DUP3 SWAP1 DUP3 SWAP1 PUSH1 0x0 SWAP1 PUSH2 0x420 SWAP1 DUP5 SWAP1 PUSH2 0xBEA JUMP JUMPDEST SWAP1 SWAP2 SSTORE POP POP PUSH1 0x2 SLOAD PUSH1 0x40 MLOAD PUSH4 0xA9059CBB PUSH1 0xE0 SHL DUP2 MSTORE PUSH1 0x1 PUSH1 0x1 PUSH1 0xA0 SHL SUB SWAP1 SWAP2 AND SWAP1 PUSH4 0xA9059CBB SWAP1 PUSH2 0x457 SWAP1 CALLER SWAP1 DUP7 SWAP1 PUSH1 0x4 ADD PUSH2 0xC49 JUMP JUMPDEST PUSH1 0x20 PUSH1 0x40 MLOAD DUP1 DUP4 SUB DUP2 PUSH1 0x0 DUP8 GAS CALL ISZERO DUP1 ISZERO PUSH2 0x476 JUMPI RETURNDATASIZE PUSH1 0x0 DUP1 RETURNDATACOPY RETURNDATASIZE PUSH1 0x0 REVERT JUMPDEST POP POP POP POP PUSH1 0x40 MLOAD RETURNDATASIZE PUSH1 0x1F NOT PUSH1 0x1F DUP3 ADD AND DUP3 ADD DUP1 PUSH1 0x40 MSTORE POP DUP2 ADD SWAP1 PUSH2 0x49A SWAP2 SWAP1 PUSH2 0xC62 JUMP JUMPDEST ISZERO ISZERO PUSH1 0x0 SUB PUSH2 0x4BC JUMPI PUSH1 0x40 MLOAD PUSH4 0x12171D83 PUSH1 0xE3 SHL DUP2 MSTORE PUSH1 0x4 ADD PUSH1 0x40 MLOAD DUP1 SWAP2 SUB SWAP1 REVERT JUMPDEST PUSH1 0x40 MLOAD DUP3 DUP2 MSTORE CALLER SWAP1 PUSH32 0x7084F5476618D8E60B11EF0D7D3F06914655ADB8793E28FF7F018D4C76D505D5 SWAP1 PUSH1 0x20 ADD JUMPDEST PUSH1 0x40 MLOAD DUP1 SWAP2 SUB SWAP1 LOG2 POP PUSH2 0x4FD PUSH1 0x1 PUSH1 0x0 SSTORE JUMP JUMPDEST POP JUMP JUMPDEST PUSH1 0x0 PUSH2 0x50B DUP3 PUSH2 0x2A2 JUMP JUMPDEST SWAP3 SWAP2 POP POP JUMP JUMPDEST PUSH2 0x519 PUSH2 0xA5A JUMP JUMPDEST PUSH2 0x522 CALLER PUSH2 0xA84 JUMP JUMPDEST CALLER PUSH1 0x0 DUP2 DUP2 MSTORE PUSH1 0x8 PUSH1 0x20 MSTORE PUSH1 0x40 DUP2 KECCAK256 SWAP2 PUSH2 0x53B SWAP1 PUSH2 0x2A2 JUMP JUMPDEST SWAP1 POP DUP1 ISZERO PUSH2 0x61D JUMPI PUSH1 0x0 PUSH1 0x3 DUP1 DUP5 ADD SWAP2 SWAP1 SWAP2 SSTORE SLOAD PUSH1 0x40 MLOAD PUSH4 0xA9059CBB PUSH1 0xE0 SHL DUP2 MSTORE PUSH1 0x1 PUSH1 0x1 PUSH1 0xA0 SHL SUB SWAP1 SWAP2 AND SWAP1 PUSH4 0xA9059CBB SWAP1 PUSH2 0x57E SWAP1 CALLER SWAP1 DUP6 SWAP1 PUSH1 0x4 ADD PUSH2 0xC49 JUMP JUMPDEST PUSH1 0x20 PUSH1 0x40 MLOAD DUP1 DUP4 SUB DUP2 PUSH1 0x0 DUP8 GAS CALL ISZERO DUP1 ISZERO PUSH2 0x59D JUMPI RETURNDATASIZE PUSH1 0x0 DUP1 RETURNDATACOPY RETURNDATASIZE PUSH1 0x0 REVERT JUMPDEST POP POP POP POP PUSH1 0x40 MLOAD RETURNDATASIZE PUSH1 0x1F NOT PUSH1 0x1F DUP3 ADD AND DUP3 ADD DUP1 PUSH1 0x40 MSTORE POP DUP2 ADD SWAP1 PUSH2 0x5C1 SWAP2 SWAP1 PUSH2 0xC62 JUMP JUMPDEST ISZERO ISZERO PUSH1 0x0 SUB PUSH2 0x5E3 JUMPI PUSH1 0x40 MLOAD PUSH4 0x12171D83 PUSH1 0xE3 SHL DUP2 MSTORE PUSH1 0x4 ADD PUSH1 0x40 MLOAD DUP1 SWAP2 SUB SWAP1 REVERT JUMPDEST PUSH1 0x40 MLOAD DUP2 DUP2 MSTORE CALLER SWAP1 PUSH32 0xFC30CDDEA38E2BF4D6EA7D3F9ED3B6AD7F176419F4963BD81318067A4AEE73FE SWAP1 PUSH1 0x20 ADD PUSH1 0x40 MLOAD DUP1 SWAP2 SUB SWAP1 LOG2 PUSH2 0x636 JUMP JUMPDEST PUSH1 0x40 MLOAD PUSH4 0x7C946ED7 PUSH1 0xE0 SHL DUP2 MSTORE PUSH1 0x4 ADD PUSH1 0x40 MLOAD DUP1 SWAP2 SUB SWAP1 REVERT JUMPDEST POP POP PUSH2 0x642 PUSH1 0x1 PUSH1 0x0 SSTORE JUMP JUMPDEST JUMP JUMPDEST PUSH2 0x64C PUSH2 0xAF3 JUMP JUMPDEST PUSH2 0x642 PUSH1 0x0 PUSH2 0xB25 JUMP JUMPDEST PUSH1 0x1 SLOAD PUSH1 0x1 PUSH1 0x1 PUSH1 0xA0 SHL SUB AND SWAP1 JUMP JUMPDEST PUSH2 0x66D PUSH2 0xAF3 JUMP JUMPDEST DUP1 PUSH1 0x0 SUB PUSH2 0x68E JUMPI PUSH1 0x40 MLOAD PUSH4 0x7C946ED7 PUSH1 0xE0 SHL DUP2 MSTORE PUSH1 0x4 ADD PUSH1 0x40 MLOAD DUP1 SWAP2 SUB SWAP1 REVERT JUMPDEST PUSH2 0x698 PUSH1 0x0 PUSH2 0xA84 JUMP JUMPDEST PUSH1 0x4 SSTORE JUMP JUMPDEST PUSH2 0x6A5 PUSH2 0xA5A JUMP JUMPDEST DUP1 PUSH1 0x0 SUB PUSH2 0x6C6 JUMPI PUSH1 0x40 MLOAD PUSH4 0x7C946ED7 PUSH1 0xE0 SHL DUP2 MSTORE PUSH1 0x4 ADD PUSH1 0x40 MLOAD DUP1 SWAP2 SUB SWAP1 REVERT JUMPDEST PUSH2 0x6CF CALLER PUSH2 0xA84 JUMP JUMPDEST CALLER PUSH1 0x0 SWAP1 DUP2 MSTORE PUSH1 0x8 PUSH1 0x20 MSTORE PUSH1 0x40 DUP2 KECCAK256 DUP1 SLOAD SWAP1 SWAP2 SUB PUSH2 0x6EE JUMPI TIMESTAMP PUSH1 0x1 DUP3 ADD SSTORE JUMPDEST DUP2 PUSH1 0x7 PUSH1 0x0 DUP3 DUP3 SLOAD PUSH2 0x700 SWAP2 SWAP1 PUSH2 0xC36 JUMP JUMPDEST SWAP1 SWAP2 SSTORE POP POP DUP1 SLOAD DUP3 SWAP1 DUP3 SWAP1 PUSH1 0x0 SWAP1 PUSH2 0x719 SWAP1 DUP5 SWAP1 PUSH2 0xC36 JUMP JUMPDEST SWAP1 SWAP2 SSTORE POP POP PUSH1 0x2 SLOAD PUSH1 0x40 MLOAD PUSH4 0x23B872DD PUSH1 0xE0 SHL DUP2 MSTORE CALLER PUSH1 0x4 DUP3 ADD MSTORE ADDRESS PUSH1 0x24 DUP3 ADD MSTORE PUSH1 0x44 DUP2 ADD DUP5 SWAP1 MSTORE PUSH1 0x1 PUSH1 0x1 PUSH1 0xA0 SHL SUB SWAP1 SWAP2 AND SWAP1 PUSH4 0x23B872DD SWAP1 PUSH1 0x64 ADD PUSH1 0x20 PUSH1 0x40 MLOAD DUP1 DUP4 SUB DUP2 PUSH1 0x0 DUP8 GAS CALL ISZERO DUP1 ISZERO PUSH2 0x775 JUMPI RETURNDATASIZE PUSH1 0x0 DUP1 RETURNDATACOPY RETURNDATASIZE PUSH1 0x0 REVERT JUMPDEST POP POP POP POP PUSH1 0x40 MLOAD RETURNDATASIZE PUSH1 0x1F NOT PUSH1 0x1F DUP3 ADD AND DUP3 ADD DUP1 PUSH1 0x40 MSTORE POP DUP2 ADD SWAP1 PUSH2 0x799 SWAP2 SWAP1 PUSH2 0xC62 JUMP JUMPDEST ISZERO ISZERO PUSH1 0x0 SUB PUSH2 0x7BB JUMPI PUSH1 0x40 MLOAD PUSH4 0x12171D83 PUSH1 0xE3 SHL DUP2 MSTORE PUSH1 0x4 ADD PUSH1 0x40 MLOAD DUP1 SWAP2 SUB SWAP1 REVERT JUMPDEST PUSH1 0x40 MLOAD DUP3 DUP2 MSTORE CALLER SWAP1 PUSH32 0x9E71BC8EEA02A63969F509818F2DAFB9254532904319F9DBDA79B67BD34A5F3D SWAP1 PUSH1 0x20 ADD PUSH2 0x4EA JUMP JUMPDEST PUSH1 0x1 PUSH1 0x1 PUSH1 0xA0 SHL SUB DUP2 AND PUSH1 0x0 SWAP1 DUP2 MSTORE PUSH1 0x8 PUSH1 0x20 MSTORE PUSH1 0x40 DUP2 KECCAK256 DUP1 SLOAD DUP3 SUB PUSH2 0x816 JUMPI POP PUSH1 0x64 SWAP3 SWAP2 POP POP JUMP JUMPDEST PUSH1 0x0 DUP2 PUSH1 0x1 ADD SLOAD TIMESTAMP PUSH2 0x828 SWAP2 SWAP1 PUSH2 0xBEA JUMP JUMPDEST SWAP1 POP PUSH3 0x76A700 DUP2 LT PUSH2 0x83E JUMPI POP PUSH1 0xC8 SWAP4 SWAP3 POP POP POP JUMP JUMPDEST PUSH3 0x278D00 DUP2 LT PUSH2 0x852 JUMPI POP PUSH1 0x96 SWAP4 SWAP3 POP POP POP JUMP JUMPDEST PUSH3 0x93A80 DUP2 LT PUSH2 0x866 JUMPI POP PUSH1 0x7D SWAP4 SWAP3 POP POP POP JUMP JUMPDEST POP PUSH1 0x64 SWAP4 SWAP3 POP POP POP JUMP JUMPDEST PUSH1 0x0 PUSH1 0x7 SLOAD PUSH1 0x0 SUB PUSH2 0x883 JUMPI POP PUSH1 0x6 SLOAD SWAP1 JUMP JUMPDEST PUSH1 0x0 PUSH1 0x5 SLOAD TIMESTAMP PUSH2 0x893 SWAP2 SWAP1 PUSH2 0xBEA JUMP JUMPDEST SWAP1 POP PUSH1 0x0 PUSH1 0x4 SLOAD DUP3 PUSH2 0x8A5 SWAP2 SWAP1 PUSH2 0xBFD JUMP JUMPDEST PUSH1 0x7 SLOAD SWAP1 SWAP2 POP PUSH2 0x8BD DUP3 PUSH8 0xDE0B6B3A7640000 PUSH2 0xBFD JUMP JUMPDEST PUSH2 0x8C7 SWAP2 SWAP1 PUSH2 0xC14 JUMP JUMPDEST PUSH1 0x6 SLOAD PUSH2 0x8D4 SWAP2 SWAP1 PUSH2 0xC36 JUMP JUMPDEST SWAP3 POP POP POP SWAP1 JUMP JUMPDEST PUSH2 0x8E3 PUSH2 0xA5A JUMP JUMPDEST CALLER PUSH1 0x0 SWAP1 DUP2 MSTORE PUSH1 0x8 PUSH1 0x20 MSTORE PUSH1 0x40 DUP2 KECCAK256 DUP1 SLOAD SWAP1 SWAP2 DUP2 SWAP1 SUB PUSH2 0x916 JUMPI PUSH1 0x40 MLOAD PUSH4 0x7C946ED7 PUSH1 0xE0 SHL DUP2 MSTORE PUSH1 0x4 ADD PUSH1 0x40 MLOAD DUP1 SWAP2 SUB SWAP1 REVERT JUMPDEST DUP1 PUSH1 0x7 PUSH1 0x0 DUP3 DUP3 SLOAD PUSH2 0x928 SWAP2 SWAP1 PUSH2 0xBEA JUMP JUMPDEST SWAP1 SWAP2 SSTORE POP POP PUSH1 0x0 DUP1 DUP4 SSTORE PUSH1 0x1 DUP4 ADD DUP2 SWAP1 SSTORE PUSH1 0x2 DUP1 DUP5 ADD DUP3 SWAP1 SSTORE PUSH1 0x3 DUP5 ADD SWAP2 SWAP1 SWAP2 SSTORE SLOAD PUSH1 0x40 MLOAD PUSH4 0xA9059CBB PUSH1 0xE0 SHL DUP2 MSTORE PUSH1 0x1 PUSH1 0x1 PUSH1 0xA0 SHL SUB SWAP1 SWAP2 AND SWAP1 PUSH4 0xA9059CBB SWAP1 PUSH2 0x979 SWAP1 CALLER SWAP1 DUP6 SWAP1 PUSH1 0x4 ADD PUSH2 0xC49 JUMP JUMPDEST PUSH1 0x20 PUSH1 0x40 MLOAD DUP1 DUP4 SUB DUP2 PUSH1 0x0 DUP8 GAS CALL ISZERO DUP1 ISZERO PUSH2 0x998 JUMPI RETURNDATASIZE PUSH1 0x0 DUP1 RETURNDATACOPY RETURNDATASIZE PUSH1 0x0 REVERT JUMPDEST POP POP POP POP PUSH1 0x40 MLOAD RETURNDATASIZE PUSH1 0x1F NOT PUSH1 0x1F DUP3 ADD AND DUP3 ADD DUP1 PUSH1 0x40 MSTORE POP DUP2 ADD SWAP1 PUSH2 0x9BC SWAP2 SWAP1 PUSH2 0xC62 JUMP JUMPDEST ISZERO ISZERO PUSH1 0x0 SUB PUSH2 0x9DE JUMPI PUSH1 0x40 MLOAD PUSH4 0x12171D83 PUSH1 0xE3 SHL DUP2 MSTORE PUSH1 0x4 ADD PUSH1 0x40 MLOAD DUP1 SWAP2 SUB SWAP1 REVERT JUMPDEST PUSH1 0x40 MLOAD DUP2 DUP2 MSTORE CALLER SWAP1 PUSH32 0x2E39961A70A10F4D46383948095AC2752B3EE642A7C76AA827410AAFF08C2E51 SWAP1 PUSH1 0x20 ADD PUSH1 0x40 MLOAD DUP1 SWAP2 SUB SWAP1 LOG2 POP POP PUSH2 0x642 PUSH1 0x1 PUSH1 0x0 SSTORE JUMP JUMPDEST PUSH2 0xA27 PUSH2 0xAF3 JUMP JUMPDEST PUSH1 0x1 PUSH1 0x1 PUSH1 0xA0 SHL SUB DUP2 AND PUSH2 0xA51 JUMPI PUSH1 0x0 PUSH1 0x40 MLOAD PUSH4 0x1E4FBDF7 PUSH1 0xE0 SHL DUP2 MSTORE PUSH1 0x4 ADD PUSH2 0x3E3 SWAP2 SWAP1 PUSH2 0xBC0 JUMP JUMPDEST PUSH2 0x4FD DUP2 PUSH2 0xB25 JUMP JUMPDEST PUSH1 0x2 PUSH1 0x0 SLOAD SUB PUSH2 0xA7D JUMPI PUSH1 0x40 MLOAD PUSH4 0x3EE5AEB5 PUSH1 0xE0 SHL DUP2 MSTORE PUSH1 0x4 ADD PUSH1 0x40 MLOAD DUP1 SWAP2 SUB SWAP1 REVERT JUMPDEST PUSH1 0x2 PUSH1 0x0 SSTORE JUMP JUMPDEST PUSH2 0xA8C PUSH2 0x870 JUMP JUMPDEST PUSH1 0x6 SSTORE TIMESTAMP PUSH1 0x5 SSTORE PUSH1 0x1 PUSH1 0x1 PUSH1 0xA0 SHL SUB DUP2 AND ISZERO PUSH2 0x4FD JUMPI PUSH1 0x1 PUSH1 0x1 PUSH1 0xA0 SHL SUB DUP2 AND PUSH1 0x0 SWAP1 DUP2 MSTORE PUSH1 0x8 PUSH1 0x20 MSTORE PUSH1 0x40 SWAP1 KECCAK256 PUSH2 0xAC3 DUP3 PUSH2 0x2A2 JUMP JUMPDEST PUSH1 0x3 DUP3 ADD SSTORE PUSH1 0x6 SLOAD DUP2 SLOAD PUSH8 0xDE0B6B3A7640000 SWAP2 PUSH2 0xAE0 SWAP2 PUSH2 0xBFD JUMP JUMPDEST PUSH2 0xAEA SWAP2 SWAP1 PUSH2 0xC14 JUMP JUMPDEST PUSH1 0x2 SWAP1 SWAP2 ADD SSTORE POP JUMP JUMPDEST CALLER PUSH2 0xAFC PUSH2 0x656 JUMP JUMPDEST PUSH1 0x1 PUSH1 0x1 PUSH1 0xA0 SHL SUB AND EQ PUSH2 0x642 JUMPI CALLER PUSH1 0x40 MLOAD PUSH4 0x118CDAA7 PUSH1 0xE0 SHL DUP2 MSTORE PUSH1 0x4 ADD PUSH2 0x3E3 SWAP2 SWAP1 PUSH2 0xBC0 JUMP JUMPDEST PUSH1 0x1 DUP1 SLOAD PUSH1 0x1 PUSH1 0x1 PUSH1 0xA0 SHL SUB DUP4 DUP2 AND PUSH1 0x1 PUSH1 0x1 PUSH1 0xA0 SHL SUB NOT DUP4 AND DUP2 OR SWAP1 SWAP4 SSTORE PUSH1 0x40 MLOAD SWAP2 AND SWAP2 SWAP1 DUP3 SWAP1 PUSH32 0x8BE0079C531659141344CD1FD0A4F28419497F9722A3DAAFE3B4186F6B6457E0 SWAP1 PUSH1 0x0 SWAP1 LOG3 POP POP JUMP JUMPDEST PUSH1 0x0 PUSH1 0x20 DUP3 DUP5 SUB SLT ISZERO PUSH2 0xB89 JUMPI PUSH1 0x0 DUP1 REVERT JUMPDEST DUP2 CALLDATALOAD PUSH1 0x1 PUSH1 0x1 PUSH1 0xA0 SHL SUB DUP2 AND DUP2 EQ PUSH2 0xBA0 JUMPI PUSH1 0x0 DUP1 REVERT JUMPDEST SWAP4 SWAP3 POP POP POP JUMP JUMPDEST PUSH1 0x0 PUSH1 0x20 DUP3 DUP5 SUB SLT ISZERO PUSH2 0xBB9 JUMPI PUSH1 0x0 DUP1 REVERT JUMPDEST POP CALLDATALOAD SWAP2 SWAP1 POP JUMP JUMPDEST PUSH1 0x1 PUSH1 0x1 PUSH1 0xA0 SHL SUB SWAP2 SWAP1 SWAP2 AND DUP2 MSTORE PUSH1 0x20 ADD SWAP1 JUMP JUMPDEST PUSH4 0x4E487B71 PUSH1 0xE0 SHL PUSH1 0x0 MSTORE PUSH1 0x11 PUSH1 0x4 MSTORE PUSH1 0x24 PUSH1 0x0 REVERT JUMPDEST DUP2 DUP2 SUB DUP2 DUP2 GT ISZERO PUSH2 0x50B JUMPI PUSH2 0x50B PUSH2 0xBD4 JUMP JUMPDEST DUP1 DUP3 MUL DUP2 ISZERO DUP3 DUP3 DIV DUP5 EQ OR PUSH2 0x50B JUMPI PUSH2 0x50B PUSH2 0xBD4 JUMP JUMPDEST PUSH1 0x0 DUP3 PUSH2 0xC31 JUMPI PUSH4 0x4E487B71 PUSH1 0xE0 SHL PUSH1 0x0 MSTORE PUSH1 0x12 PUSH1 0x4 MSTORE PUSH1 0x24 PUSH1 0x0 REVERT JUMPDEST POP DIV SWAP1 JUMP JUMPDEST DUP1 DUP3 ADD DUP1 DUP3 GT ISZERO PUSH2 0x50B JUMPI PUSH2 0x50B PUSH2 0xBD4 JUMP JUMPDEST PUSH1 0x1 PUSH1 0x1 PUSH1 0xA0 SHL SUB SWAP3 SWAP1 SWAP3 AND DUP3 MSTORE PUSH1 0x20 DUP3 ADD MSTORE PUSH1 0x40 ADD SWAP1 JUMP JUMPDEST PUSH1 0x0 PUSH1 0x20 DUP3 DUP5 SUB SLT ISZERO PUSH2 0xC74 JUMPI PUSH1 0x0 DUP1 REVERT JUMPDEST DUP2 MLOAD DUP1 ISZERO ISZERO DUP2 EQ PUSH2 0xBA0 JUMPI PUSH1 0x0 DUP1 REVERT INVALID LOG2 PUSH5 0x6970667358 0x22 SLT KECCAK256 0xB2 0xDA SELFDESTRUCT NOT PUSH21 0x3AC23B888EABEB716E785597F9EA7C12DDD4C63CD0 BYTE 0xC4 0xBA REVERT BASEFEE 0xA8 PUSH5 0x736F6C6343 STOP ADDMOD EQ STOP CALLER "
        },
        "methodIdentifiers": {
          "BOOST_THRESHOLD_1()": "109d7428",
          "BOOST_THRESHOLD_2()": "1c977df9",
          "BOOST_THRESHOLD_3()": "843dd78d",
          "calculateBoostMultiplier(address)": "ca9f3dfd",
          "claimRewards()": "372500ab",
          "earned(address)": "008cc262",
          "emergencyWithdraw()": "db2e21bc",
          "lastUpdateTime()": "c8f33c91",
          "lpToken()": "5fcbd285",
          "owner()": "8da5cb5b",
          "pendingRewards(address)": "31d7a262",
          "renounceOwnership()": "715018a6",
          "rewardPerToken()": "cd3daf9d",
          "rewardPerTokenStored()": "df136d65",
          "rewardRate()": "7b0a47ee",
          "rewardToken()": "f7c618c1",
          "stake(uint256)": "a694fc3a",
          "totalStaked()": "817b1cd2",
          "transferOwnership(address)": "f2fde38b",
          "updateRewardRate(uint256)": "9ef3a261",
          "userInfo(address)": "1959a002",
          "withdraw(uint256)": "2e1a7d4d"
        }
      }
    }
  }
}